:020000040800F2
:10000000381E002015020008E3420008FB330008F8
:10001000E142000849090008E54E00080000000020
:100020000000000000000000000000005D49000822
:10003000390D0008000000007B470008A5490008B2
:100040002F0200082F0200082F0200082F020008CC
:100050002F0200082F0200082F0200082F020008BC
:100060002F0200082F0200082F0200082F020008AC
:100070002F0200082F0200082F0200082F0200089C
:100080002F0200082F0200082F0200082F0200088C
:100090002F0200082F0200082F0200083B0D000865
:1000A0002F0200082F0200082F0200082F0200086C
:1000B0002F0200082F0200082F0200082F0200085C
:1000C0002F0200082F0200082F0200082F0200084C
:1000D0002F0200082F0200082F020008D94E000846
:1000E0002F0200082F0200082F0200082F0200082C
:1000F0002F0200082F0200082F0200082F0200081C
:100100002F0200082F0200082F0200082F0200080B
:100110002F020008BD4C00082F0200082F02000823
:100120002F0200082F0200082F0200082F020008EB
:1001300000F002F800F05FF80AA090E8000C82449A
:100140008344AAF10107DA4501D100F054F8AFF277
:10015000090EBAE80F0013F0010F18BFFB1A43F0A5
:1001600001031847E4AE000004AF00000A444FF05A
:10017000000C10F8013B13F0070408BF10F8014B06
:100180001D1108BF10F8015B641E05D010F8016B4B
:10019000641E01F8016BF9D113F0080F1EBF10F8AF
:1001A000014BAD1C0C1B09D16D1E58BF01F801CBD2
:1001B000FAD505E014F8016B01F8016B6D1EF9D555
:1001C0009142D6D37047000000230024002500266A
:1001D000103A28BF78C1FBD8520728BF30C148BFAA
:1001E0000B607047642900F09B80002070471FB5AA
:1001F0001FBD10B510BD00F061FA1146FFF7F7FF03
:1002000006F01EFB00F07FFA03B4FFF7F2FF03BC19
:1002100004F004FF0948804709480047FEE7FEE76D
:10022000FEE7FEE7FEE7FEE7FEE7FEE7FEE7FEE7A6
:1002300004480549054A064B70470000234A000858
:100240003101000838180020381E0020381A00201C
:10025000381A0020704710B54C1084EA530404D5B6
:100260004042C1F1000138BF491E1B4204D5524231
:10027000C3F1000338BF5B1E00F00FF914F0804F8C
:1002800004D04042C1F1000138BF491E14F0004FB4
:1002900004D05242C3F1000338BF5B1E10BD000002
:1002A0000FB4044910B503AA029800F0D1F910BCAC
:1002B0005DF814FB400000202DE9F0410E46044695
:1002C000002020622046E168884730B3252805D009
:1002D000D4E901219047206A401CF2E7E1682046FA
:1002E00000278847050018D0A5F14100192802D839
:1002F00020354FF400673246294620462760FFF735
:1003000071FF40B1012804D0F61D26F0070608361B
:10031000D8E7361DD6E72846DAE7206ABDE8F0813F
:100320002DE9F0410646002410687529314616A5CE
:1003300010D0AFF30080002802DA404213A507E096
:1003400031688A0701D512A502E0490704D511A535
:10035000012401E0AFF3008000210A2206F1240706
:1003600009E0B0FBF2FCB0FBF2F302FB1C00303002
:1003700078541846491C0028F3D123462A463046B3
:10038000BDE8F04100F00BB9000000002D000000B6
:100390002B0000002000000040EA010310B59B077D
:1003A0000FD1042A0DD310C808C9121F9C42F8D0DF
:1003B00020BA19BA884201D9012010BD4FF0FF3090
:1003C00010BD1AB1D30703D0521C07E0002010BDA6
:1003D00010F8013B11F8014B1B1B07D110F8013B32
:1003E00011F8014B1B1B01D1921EF1D1184610BD13
:1003F00002F0FF0343EA032242EA024200F002B89D
:100400004FF000020429C0F0128010F0030C00F03D
:100410001B80CCF1040CBCF1020F18BF00F8012BBB
:10042000A8BF20F8022BA1EB0C0100F00DB85FEA89
:10043000C17C24BF00F8012B00F8012B48BF00F855
:10044000012B70474FF0000200B5134694469646C4
:10045000203922BFA0E80C50A0E80C50B1F12001D7
:10046000BFF4F7AF090728BFA0E80C5048BF0CC085
:100470005DF804EB890028BF40F8042B08BF7047E3
:1004800048BF20F8022B11F0804F18BF00F8012B55
:100490007047704770477047704753EA020C00F08E
:1004A00069802DE9F04B4FF00006002B1FBFB3FA17
:1004B00083F503FA05F424FA05F65E4012BF1643ED
:1004C000B2FA82F502FA05F4C5F120051EBF22FA40
:1004D00005FC44EA0C04203556EA044C4FEA144467
:1004E00018BF641C4FF000084FF00009904271EBF8
:1004F000030C39D3002919BFB1FA81F701FA07F6C5
:10050000B0FA80F700FA07F6C7F120071EBF20FAFD
:1005100007FC46EA0C062037B6FBF4FCA7EB050700
:10052000103F07F01F0BCBF120060CFA0BFB2CFA47
:1005300006F644BFB3460026202FA4BF5E464FF008
:10054000000B5BEA060C08BF4FF0010B19EB0B091F
:10055000ABFB027C48EB0608C01B06FB02CC0BFB86
:1005600003CC71EB0C01C1E70B46024641464846FD
:10057000BDE8F08B13B54FF000004FF00001AFF372
:100580000080BDE81C40704710B500F073F80068AB
:1005900010BD10B5044600F06DF8046010BD2DE9E3
:1005A000F0470D4699469246044600F1240801683A
:1005B000880604D5E06921F01001216000E00120E7
:1005C000A84201DD471B00E00027A1697A1902EB70
:1005D0000900081AA0612078C00602D42046AFF3B3
:1005E0000080002608E0D4E901211AF806009047AF
:1005F000206A401C761C20624E45F4DB2078C00641
:100600000AD52046AFF3008006E0D4E9012130206E
:100610009047206A401C2062381EA7F10107F4DCD5
:1006200007E0D4E9012118F805009047206A401C32
:100630002062281EA5F10105F3DC2046AFF30080FF
:100640002078000602D50220BDE8F0870120FBE7F4
:10065000074B70B50D467B4400F015F8044628465C
:1006600000F024F810B14FF0FF3070BD204670BD8F
:10067000135C000000487047D417002001694A1C31
:1006800002610878704700B58FB0CDE901310021D3
:10069000059105497944CDE9031011466846FFF7F5
:1006A0000BFE0FB000BD0000E5FFFFFF007B00F078
:1006B0008000704700487047D41700207546FFF748
:1006C000F9FFAE4605006946534620F0070085460F
:1006D00018B020B5FFF7ACFDBDE820404FF0000694
:1006E0004FF000074FF000084FF0000B21F007011A
:1006F000AC46ACE8C009ACE8C009ACE8C009ACE85D
:10070000C0098D46704710B50446AFF300802046FF
:10071000BDE81040FFF778BD70B5044600688168F9
:10072000C943C90717D1816821F00101816001F037
:10073000B7FB05460AE000BF01F0B2FB401B0228F0
:1007400004D920688068C043C00706D0206880684C
:10075000C043C007F0D0002070BDA06A40F0100078
:10076000A062E06A40F00100E062012070BD00007C
:10077000F8B500260446009600688168C943C90799
:100780002DD0816841F0010181601648164900684A
:10079000B0FBF1F000E0401E00900028FBD101F01A
:1007A0007FFB054616E000BF01F07AFB401B0228E4
:1007B00010D920688068C043C0070BD0A06A40F001
:1007C0001000A062E06A40F00100E06284F824605A
:1007D0000120F8BD20688068C043C007E4D1002034
:1007E000F8BD00005000002040420F002DE9F0410C
:1007F0003648032186B000684000A0F6AC0090FBAC
:10080000F1F5002D01DA002502E0642D00DD6425FC
:100810002F4EB06808F0BCFB2E4CDFF8BC8022469F
:10082000434608F0A5F808F00DF8070000D5474248
:10083000706808F0ADFB2246434608F099F808F0CE
:1008400001F8040000D544423078E8B1002030704F
:10085000224E3178012919D058B32148006808F098
:10086000EDFC05461F48006808F0E8FC04461E48F9
:10087000006808F0E3FC06B02B462246BDE8F041D4
:1008800001461AA0FFF70CBD0120E0E700241B4839
:100890000594029403940494009401940268184807
:1008A0002346016817A0FFF7FBFC347006B0BDE8D3
:1008B000F0811C48006808F0C1FC00902B463A46C5
:1008C000214619A0FFF7ECFCF0E70000280000200B
:1008D000E80100209A9999999999F13F38000020F0
:1008E000B0000020A8000020AC0000207B4225645E
:1008F0003A25643A25647D24000000006001002050
:10090000640100207B4325643A25643A25643A2536
:10091000643A25643A25643A25643A25643A2564A4
:100920007D2400002C0000207B4125643A25643A98
:1009300025643A25647D240002494FF40040086094
:100940007047000014080140FEE700002DE9F04167
:100950000D4C0A4607460B4E1046216808F0D6FC9F
:10096000216B08F041FB0146084808F0CFFC054622
:100970003146384608F0CAFC294608F035FB2063AA
:10098000BDE8F0810AD7A33CF801002048E17A3F96
:100990002DE9F0410D4C0A4607460B4E10462168E2
:1009A00008F0B4FC216E08F01FFB0146084808F06F
:1009B000ADFC05463146384608F0A8FC294608F04B
:1009C00013FB2066BDE8F0810AD7A33CF8010020A4
:1009D00048E17A3FF8B5374F00260120009638707D
:1009E00002466B467521682005F0A4FE32A0FFF791
:1009F00057FC9DF8000068280CD0BFF34F8F374894
:100A00000168374A01F4E06111430160BFF34F8F81
:100A100000BFFDE706F01AF8002848D1782006F05C
:100A2000D3FC10B924A0FFF73BFC782005F040FF71
:100A300010B92CA0FFF734FCC82006F085FC10B9D3
:100A400032A0FFF72DFC05F0BDF810B939A0FFF773
:100A500027FC4548044605F0CFFE0546E01C05F09E
:100A6000CBFE45EAC005A01D05F0C6FE45EA801094
:100A700080B205F057FA10B93CA0FFF711FC40F224
:100A8000731004F077FF10B942A0FFF709FCC820EB
:100A900005F0B0F910B949A0FFF702FC07F0FCFB24
:100AA000012006F077FB10B94DA0FFF7F9FB3E706F
:100AB000F8BD0000050000206D70755F7365745F00
:100AC00073656E736F7220636F6D706C65746520F3
:100AD0002E2E2E2E2E2E0D0A000000000CED00E012
:100AE0000400FA056D70755F636F6E6669677572F5
:100AF000655F6669666F20636F6D706C65746520F5
:100B00002E2E2E2E2E2E0D0A000000006D70755F09
:100B10007365745F73616D706C655F72617465207D
:100B2000636F6D706C657465202E2E2E2E2E2E0D2B
:100B30000A000000646D705F6C6F61645F6D6F74BC
:100B4000696F6E5F6472697665725F6669726D77F0
:100B500061726520636F6D706C657465202E2E2E3A
:100B60002E2E2E0D0A000000C0000020646D705F64
:100B70007365745F6F7269656E746174696F6E20FE
:100B8000636F6D706C657465202E2E2E2E2E2E0DCB
:100B90000A000000646D705F656E61626C655F667F
:100BA00065617475726520636F6D706C6574652026
:100BB0002E2E2E2E2E2E0D0A00000000646D705F6A
:100BC0007365745F6669666F5F7261746520636FD9
:100BD0006D706C657465202E2E2E2E2E2E0D0A0043
:100BE0006D70755F7365745F646D705F737461744D
:100BF0006520636F6D706C657465202E2E2E2E2E11
:100C00002E0D0A0070B512480121006800F06AF844
:100C100010480221006800F065F80F4803210068C1
:100C200000F060F80421002000F05CF8042000F0DF
:100C300019F80A4A00210A4B141D06E015686D06D2
:100C4000FCD55D5C2560491CC9B28142F6D370BDFC
:100C5000D801002094010020A001002000380140AC
:100C60000C0900200A2839D890B31D4924220B28EA
:100C70000A7033D2DFE800F032060A0E12161A1E8E
:100C800022272D0005204871062070470920487250
:100C90000A2070470D2048730E20704711204874B9
:100CA0001220704715204875162070471920487685
:100CB0001A2070471D2048771E207047212081F898
:100CC000210022207047252081F82500262070472A
:100CD00004E0292081F829002A20F8E70020F6E71F
:100CE0000C09002003B50A2912D8002910D00B29BD
:100CF0000ED2DFE801F00D06080E10121416181AB5
:100D00001C00012200E005220A49684600F01BF899
:100D10000CBD0922F8E70D22F6E71122F4E71522AF
:100D2000F2E71922F0E71D22EEE72122ECE7252267
:100D3000EAE700000C09002070474FF4007000F053
:100D4000A1BF72B6FEE703788B54114443784B7011
:100D500082788A70C078C870704700000EB50B2882
:100D600001D00F2800D100900120019007200290AF
:100D70006946074800F0DCF9054800F0B7FB0A2196
:100D8000034800F015FB024800F050FA80B20EBD97
:100D9000CC0200202DE9F04100250E4607462C46E6
:100DA00008E03846FFF7DAFF0544012004F0AAFD09
:100DB000641CE4B2B442F4D3B5FBF6F080B2BDE8F3
:100DC000F08100002DE9FE4FDFF80892DFF808827D
:100DD000DFF808A2DFF808B2824D01287ED0442156
:100DE000D02002F00BFB04464321D02002F006FB8A
:100DF00004EB00207C4C4621E081D02002F0FEFA7A
:100E000006464521D02002F0F9FA06EB0020608268
:100E10004821D02002F0F2FA06464721D02002F005
:100E2000EDFA06EB002020823C21D02002F0E6FA09
:100E300006463B21D02002F0E1FA06EB002020819B
:100E40003E21D02002F0DAFA06463D21D02002F001
:100E5000D5FA06EB0020A0804021D02002F0CEFA87
:100E600006463F21D02002F0C9FA06EB002007B267
:100E7000E780B4F90E60704208F01CFAC8F8000070
:100E8000B4F9080007F00DFDDFF86081584B4246C9
:100E900007F080FB07F090FA0290B4F9040007F025
:100EA00000FD4246524B07F075FB07F085FA0190B2
:100EB000384607F0F6FC42464D4B07F06BFB07F057
:100EC0007BFA0090304607F0ECFCDFF828814FF009
:100ED00066373A46434607F05DFB00E016E007F050
:100EE0006BFA0646B4F9120007F0DBFC3A464346BB
:100EF00007F050FB07F060FA07463F48DFF8FC8038
:100F00000078022818D003283ED052E003F036FCC7
:100F10003B4C2968C9F80010B4F9000008F0CAF980
:100F2000C8F80000B4F9040008F0C4F9CAF80000D9
:100F30003448B0F9040047E0DDE9001086F00042D3
:100F400002F002FD08F024F8304E2F4A334607F035
:100F500021FB00222E4B07F00BFD07F02DFA286035
:100F60003A460099029802F01BFE08F011F8264A52
:100F7000334607F00FFB0022254B07F0F9FC07F082
:100F80001BFAC8F8000014E0B4F90A0008F092F95E
:100F90003146FFF7DBFC80F000402860B4F90C001C
:100FA00008F088F93946FFF7F3FC80F00041C8F8F3
:100FB00000102968C9F80010B4F9100008F07AF997
:100FC000CAF80000B4F9060008F074F9CBF8000084
:100FD000BDE8FE8F2C0000203000002034000020EF
:100FE0003C000020AC000020040100208FC2F52846
:100FF0005C1F9A40665E8D4000000020A800002023
:10100000B4000020BA000020F1D4C853FB210940ED
:101010000080664010B50B20FFF7A0FE07F058FCDB
:101020004FF06632094B07F0A3FC0022084B07F093
:101030009FFC0022074B07F09BFC6FF00B0208F0AF
:10104000E2FABDE8104007F0FDBB000066660A400A
:101050000000264000005940F8B5002504460095E0
:1010600090F8240001280BD0012084F824002046A9
:10107000FFF752FB2046FFF77BFB060002D050E053
:101080000220F8BDA06A20F4885040F00200A0625F
:10109000022000F0A7FF25490968B1FBF0F04000ED
:1010A00000E0401E00900028FBD12068816841F0DC
:1010B0000801816000F0F4FE074608E000F0F0FE51
:1010C000C01B0A2803D920688068000715D420684F
:1010D00080680007F2D42068816841F004018160D3
:1010E00000F0DEFE074612E000F0DAFEC01B0A2820
:1010F0000DD920688068400709D5A06A20F0020059
:1011000040F01000A06284F824500120F8BD20684F
:1011100080684007E8D4A06A20F0020040F0010097
:10112000A06284F824503046F8BD00005000002032
:10113000F8B50024009490F824202546012A12D006
:10114000012280F824204A681F23072A0DD206684E
:10115000776B521E02EB820293409F430B689340D1
:101160001F43776319E00220F8BD06680D2A0AD2F2
:10117000376BD21F02EB820293409F430B68934070
:101180001F43376309E0F76A0D3A02EB820293408E
:101190009F430B6893401F43F7620A680723066862
:1011A0000A2A0AD3F7680A3A02EB420293409F43A5
:1011B0008B6893401F43F76008E0376902EB4202F7
:1011C00093409F438B6893401F4337610A68102AFE
:1011D00001D0112A20D1124B02689A4217D193688C
:1011E0001B0219D4936843F4000393600968102923
:1011F00012D10C490C4A0968B1FBF2F101EB8101F3
:10120000490000E0491E00910029FBD104E0816AF9
:1012100041F020018162012480F824502046F8BD6D
:10122000002401405000002040420F000068C06CC4
:10123000704700002DE9F04104004FF0000514D084
:10124000A06A002628B9E66284F82460204600F0EF
:1012500083F82046FFF760FAA16A01F0100101430C
:1012600004D0A06A40F01000A0626BE0A16A21F4F3
:10127000885141F00201A162334923688B42E16940
:1012800004D1B1F5402F01D14FF40021277B4FF459
:10129000807C41EA470261680A43A168614509D040
:1012A000012907D05FF0000194F814E0BEF1010FAE
:1012B00002D00AE06146F7E7C7B1A76A47F0200706
:1012C000A762E76A47F00107E7625F6827F46947AA
:1012D0000F435F60236899681C4F39401143996040
:1012E000A16861450BD0012909D00CE0DFF860E06E
:1012F000A7690EEB47370F4347F40061E5E7218A02
:101300000D05A5F580152168CB6A23F470032B43E6
:10131000CB62216889680F4B1940914208D1E6627F
:10132000A16A21F0020141F00101A162BDE8F08152
:10133000A06A20F0020040F01000A062E06A40F0D5
:101340000100E0620120F1E7003C0140FDF7E1FF10
:1013500000E0FFFFFE0E1FFF00B585B000210091E9
:1013600001910291039100680E49884218D10E48FC
:10137000816941F480618161816901F48061049136
:10138000816941F0100181618069694600F01000B7
:1013900004902220009003200190044800F07EFC7D
:1013A00005B000BD002801400010024000100140BF
:1013B0002DE9F84300270D460446009700F070FD24
:1013C000804620688168C90508D5A06A40F02000E1
:1013D000A06284F824700120BDE8F8834168C90543
:1013E00003D4C06A10F4700F2AD0022000F0FAFD76
:1013F0003B490968B1FBF0F62068036939490B42A3
:101400004FEA61014FEAA1121FD1C3684FEA611C84
:1014100013EA0C0F19D103690B4225D1C0681042A1
:1014200022D1142023E0681C0AD02DB100F038FD31
:10143000A0EB0800A84203D920680068800725D5E2
:10144000206800688007EED52DE003690B4202D1C9
:10145000C168114206D0026923490A4206D1C06818
:10146000084203D1542002E0292000E0FC2046433A
:10147000009816E0681C11D02DB100F011FDA0EB12
:101480000800A8420AD90098B04207D2A06A40F0EA
:101490000400A06284F8247003209DE70098401C9B
:1014A0000090B042E6D321686FF012000860A06A95
:1014B00040F40070A06220688068C0F342400728B2
:1014C0000CD1207B50B9A06A20F48070A062A06A81
:1014D000C00403D4A06A40F00100A06200207BE7B2
:1014E00050000020244992244992240070B50446FB
:1014F00090F8240001280DD0012084F82400204613
:10150000FFF736F902004FF0000005D084F8240000
:10151000104670BD022070BDA16A40F201239943BC
:1015200041F48071A1621F4D23681F49AB4218D15D
:101530000E6816F4702F14D0A66A46F48016A662C0
:101540000E68760505D5A66A26F4005646F4805640
:10155000A662A66AF6040AD5E66A26F00606E662E0
:1015600006E0A66A26F48016A6625E68E9E7E062F5
:1015700084F824006FF00200186020688368C3F3C9
:101580004243072B05D1A84208D1096811F4702FF6
:1015900004D0816841F480118160B9E7816841F429
:1015A000A001F9E7002801400424014010B590F89B
:1015B00021100022022905D00421816380F8202017
:1015C000012010BD01680B6823F00E030B60016859
:1015D0000B6823F001030B6090F84030C46B0121CD
:1015E00001FA03F3636080F8211080F82020104690
:1015F00010BD00002DE9F05F90F8211000240229B1
:1016000003D004218163012485E001680A6822F087
:101610000E020A6001680A6822F001020A603F4E69
:101620003E4FB215DFF8F4C0DFF8F090DFF8ECA021
:10163000DFF8E8B0DFF8E4E00168783F1301150255
:10164000ACF1640CA9F15009AAF13C0AABF1280BEA
:10165000AEF1140E4FF48018B14227D9B9420ED022
:10166000614512D049451DD0514518D0594518D073
:10167000714501D1424615E0294EB14201D1012206
:1016800010E0274E1436B14201D110220AE0244E58
:101690002836B14206D0224A3C32914201D11A4644
:1016A00000E02A461E49091F0A602BE0B94213D008
:1016B000614517D0494522D051451DD059451DD00F
:1016C000714501D142461AE0B14202D14FF0807219
:1016D00015E0134EB14201D1012210E0104E143634
:1016E000B14201D110220AE00D4E2836B14206D097
:1016F0000B4A3C32914201D11A4600E02A46074982
:1017000080394A60012180F82110002180F82010E2
:10171000416B01B188472046BDE8F09F8000024040
:10172000080402402DE9F04F93B0B0F5007F7DD161
:10173000042003F0FBF8FE4C2060082003F0F6F8CC
:10174000DFF8F08341420F20C8F800101E21FFF798
:1017500021FBF949F94D0880A87878B10020A870DC
:10176000F7480078FFF72EFB28780021401C2870EE
:10177000C82002F067F8032802D006E00120EEE757
:10178000F048017839B100210170EF49087800264E
:10179000012802D00AE00121F6E7EC480278521C49
:1017A000D2B202700A2A01D106700E70A878012800
:1017B0007ED0206807F07EFDE54907F07DFC07F04C
:1017C000E7FBE44AE44B07F0D3F8012207F01BFFE4
:1017D0004FF08042E14B06F0DDFE06F0EDFDD74C08
:1017E00007468034E06207F0D3FB0022DC4B07F0B1
:1017F000BFF84FF0FF3B5A4607F005FF06F0DCFD4F
:10180000D84981460860D849384607F07FFD616BAA
:1018100007F0EAFB82466063D8F8000007F04AFD53
:10182000CB4907F049FC07F0B3FB00E083E0C94A6D
:10183000C94B07F09DF8012207F0E5FE4FF080420A
:10184000C64B06F0A7FE06F0B7FD0746206307F07B
:101850009FFB0022C24B07F08BF85A4607F0D3FEDD
:1018600006F0AAFDC14980460860BF49384607F026
:101870004DFDA16B07F0B8FB0746A0634146484603
:1018800007F0B2FB07F084FBB94AB44B07F070F8DD
:101890005A4607F0B8FEDFF8DCB280468946DBF82E
:1018A000000007F075FB42464B4606F0B7FD00E02E
:1018B00030E006F081FDCBF80000B048AE4900688A
:1018C000019007F0F9FB07F063FBA24AA24B07F077
:1018D0004FF806F071FD6065AA48A949006807F055
:1018E000EBFB07F055FBA84AA84B07F041F88046F0
:1018F0008946A06D07F04CFB42464B4606F08EFD34
:1019000006F05AFD8046A06528784FF0010B0228AA
:1019100014D06AE1FFF77EFB6866A96E491CA966D0
:10192000EA6E64291044E86605D190FBF1F198480D
:101930000160EE66AE6613B0BDE8F08F7F4C2E708E
:1019400080345046E16B07F0B7FD696D894607F0BA
:10195000B3FBC4F83CA060643846216C07F0ACFDD2
:10196000494607F0A9FB2764A0644FF0FF314046C9
:1019700007F077FEA0657048008807F0B3FCA96DFA
:1019800007F090FD834907F0C1FC019907F02CFB9B
:10199000794907F091FB07F0FBFA6E4A6E4B06F0AF
:1019A000E7FF06F009FDE0610746216A07F084FDC4
:1019B000494607F081FB8046A06A07F0E9FA4FF03C
:1019C0003332754B06F0D4FF81468A46404607F015
:1019D000DFFA724A724B06F0CBFF4A46534606F0D6
:1019E0001DFD06F0E9FC60622762A06202F07AFC4D
:1019F000616A1291286B07F089FC0290A16D0A912F
:101A0000E86A07F083FC0190A168606C099007F018
:101A100053FD0D90696A07F079FCE16980461191E8
:101A2000286A07F073FC0390606D2169824607F015
:101A300043FD1090E96907F069FC81466168A06B7D
:101A400007F03AFD0F90A96907F060FC074621688E
:101A5000606B07F031FD0E90696907F057FC39465D
:101A600007F0C2FA494607F0BFFA039907F0BCFA3B
:101A7000414607F0B9FAA16C07460691E06807F005
:101A80001BFD0B90A96A07F041FC394607F014FDD5
:101A9000019907F011FD029907F00EFD60610C90AD
:101AA0001299286D07F032FC04900A99E86C07F04F
:101AB0002DFC0A900D98696C07F028FC814611995D
:101AC000286C07F023FC03901098E96B07F01EFCCC
:101AD00007460F98A96B07F019FC80460E98696BB2
:101AE00007F014FC414607F07FFA394607F07CFA0C
:101AF000039907F079FA494607F076FA07460B98FA
:101B0000A96C07F003FC394607F0D6FC0A9907F0E8
:101B1000D3FC049907F0D0FC22490746A0618A450E
:101B20005EDC21498A455BD2696D0C9888463DE0B0
:101B3000180000201C0000200C00002004010020E0
:101B40000000002005000020070000200600002003
:101B500000606A47F1D4C853FB210940E17A743F21
:101B600000C05040EC0100200AD7A33BF001002048
:101B70007B14AE47F4010020000034432C00002009
:101B8000333383413000002012E7FAA146DF913F52
:101B900028000020EA04B43D3333E33F9A99999931
:101BA0009999D93FF90F493FF90F49BF07F0AEFBAB
:101BB000099907F019FA0546E0644146384607F0EE
:101BC000A5FB069907F010FA20652946E06A01F0A6
:101BD000C1FDE065216D206B01F0EEFD206603E0A4
:101BE00085F801B0E6652666A6651D48007840B315
:101BF0005FF0000002F004F91A4C1B4B65422246CC
:101C00002946D86D02F0B2FDD86522462946186EE5
:101C100002F0ACFD014618661448DA6D0260144803
:101C20000160104602F09CFE1248D0F834011249BF
:101C3000124AC0B2087012680A2A04DA81F800B0A9
:101C400004E06420D6E700283FF475AE0C48066037
:101C5000001D0660001D0660001D06606BE60000AA
:101C6000090000200CE5FFFF840100202000002077
:101C70002400002000002242040000202800002050
:101C800034040040044910B50A68024202D00860DA
:101C9000FFF748FD10BD0000140401402DE9F84F86
:101CA000DFF8C8910024A9F1040B23460F2709F19E
:101CB000040AABF1040ED1E00125A54006EA0502B5
:101CC000AA4276D1DFF8A8C14E68A6EB0C0866459B
:101CD0002BD00DDC032E34D005DC36B3012E19D009
:101CE000022E2FD11BE0112E16D0122E2AD119E070
:101CF000B8F5881F19D006DCB8F5803F15D0B8F5C7
:101D0000801F1FD111E0B8F5001F0ED0B8F5041FD9
:101D100018D10AE0CB6815E0CB681B1D12E0CB6838
:101D200008330FE0CB680C330CE08B682BB1012B30
:101D30004FF0080303D0456104E0042302E005618D
:101D400000E00023FF2A01D8064601E000F1040666
:101D50004FEA840501D9A5F12005D6F8008007FADD
:101D600005FC28EA0C0803FA05F548EA0508C6F858
:101D700000804D68ED0070D53E4DAE6946F001061D
:101D8000AE61AD6924F0030605F0010500953A4DFA
:101D900006EB050CDCF80850A607360F07FA06F824
:101DA00025EA0805DFF8D480404503D14FF000084C
:101DB00025E052E0DFF8C880404502D14FF001082D
:101DC0001DE0DFF8C080404502D14FF0020816E068
:101DD000DFF8B480404502D14FF003080FE0DFF890
:101DE000AC80404502D14FF0040808E0DFF8A08045
:101DF000404502D14FF0050801E04FF0060808FA0F
:101E000006F848EA0508CCF808804D68D9F8006063
:101E1000ED024D4601D5164300E096432E604D6815
:101E2000DAF80060AD02554601D5164300E096434E
:101E30002E604D68DBF80060AD035D4601D51643AA
:101E400000E096432E604D68DEF80060ED037546B5
:101E500001D5164300E096432E60641C0A681646BE
:101E6000E2407FF429AFBDE8F88F0000080401408C
:101E70000000111000100240000001400008014065
:101E8000000C014000100140001401400018014006
:101E9000001C01400AB1016170470904FBE7000022
:101EA00001488068704700004400002002488168B3
:101EB000027811448160704744000020074810B543
:101EC000016841F010010160032000F079F803205F
:101ED00000F006F800F024F8002010BD00200240B9
:101EE00070B50D4D04464FF47A712878B1FBF0F0CF
:101EF0000A490968B1FBF0F000F0B2FB48B9102CB8
:101F000007D200222146501E00F03AF800206C60F3
:101F100070BD012070BD0000440000205000002072
:101F20000E4808B5816941F001018161816901F0C4
:101F300001010091C16941F08051C161C06900F0A7
:101F400080500090052000F03BF80548416821F0E2
:101F5000E06141F00071416008BD000000100240E6
:101F600000000140002809DB00F01F020121914020
:101F70004009800000F1E020C0F800117047000027
:101F8000F0B40E4B1B680C46C3F30223C3F10705E4
:101F9000042D00D90425191D072901D2002300E0D2
:101FA000DB1E012606FA05F1491E214099409E409C
:101FB000761E16403143F0BC02F0A9BF0CED00E0E4
:101FC000064900F0070208684FF6FF03184040EA90
:101FD0000220034A10430860704700000CED00E047
:101FE0000000FA0510B501460020284C04292FD026
:101FF0000BDC012930D0022929D100F06BF961688E
:10200000C1F38131491C49001FE0082920D0102963
:102010001DD161682268D20119D51D48C1F38342E0
:10202000C903805C0AD56168194AC1F34041921E18
:10203000515C184AB2FBF1F1484301E016494843AC
:102040006168490203D440000321B0FBF1F010BDE8
:10205000BDE8104000F04EB9226AC2F30121012907
:1020600003D1920701D5C80310BD022905D1626AC8
:10207000920702D549F6404010BD0329FCD12168E2
:102080008903F9D54FF2244010BD00000010024032
:10209000F296000800127A0000093D002DE9F8438D
:1020A00005460078354CC00754D0E0690026C000D2
:1020B00008D4E06940F08050E061E069012600F05A
:1020C000805000902E480168C90512D401688046EE
:1020D00041F480710160FFF7E3FE074605E000BFB1
:1020E000FFF7DEFEC01B642823D8D8F80000C00527
:1020F000F6D5206A10F4407021D0A98801F440710F
:1021000081421CD0206A1F49012220F440700A60DD
:1021100000220A602062C00711D0FFF7C1FE074607
:1021200041F2883808E000BFFFF7BAFEC11B414505
:1021300002D90320BDE8F883206A8007F4D5206A1D
:10214000696820F44070084320621EB1E06920F005
:102150008050E0612878800705D56068A96820F480
:102160004040084360602878C00605D5606869690A
:1021700020F48000084360600020DBE7001002408C
:1021800000700040400442422DE9F0470F46050030
:1021900061D0434E306800F00700B84209D2306881
:1021A00020F0070038433060306800F00700B84284
:1021B00051D128683B4C810712D5400703D5606890
:1021C00040F4E06060602878000703D5606840F460
:1021D000605060606068A96820F0F00008436060AB
:1021E0002878C00728D06868012810D02168022804
:1021F00010D0890700292EDA616821F0030101431C
:102200006160FFF74DFE804641F288390DE021689C
:102210008903EFE78901EDE7FFF742FEA0EB080134
:10222000494502D90320BDE8F0876068696800F07D
:102230000C00B0EB810FEFD1306800F00700B8421E
:102240000BD9306820F0070038433060306800F068
:102250000700B84201D00120E5E72878400705D5FE
:102260006068E96820F4E06008436060287800074F
:1022700006D56068296920F4605040EAC1006060BA
:1022800000F038F86168084AC1F30311515CC84096
:102290000649086006480068FFF722FE0020C2E7F2
:1022A0000020024000100240029700085000002069
:1022B000480000200448054900684968044AC1F301
:1022C0000221515CC84070475000002000100240BD
:1022D000129700080448054900684968044AC1F398
:1022E000C221515CC84070475000002000100240DD
:1022F000129700080E4A51680E4801F00C03042B97
:1023000011D0082B0FD10C48C1F38343C903C05C23
:102310000AD55168084AC1F34041921E515C054AF2
:102320005043B0FBF1F07047044948437047000048
:102330000010024000127A00E096000800093D00FB
:102340002DE9F84F040070D02078C04DC00749D067
:102350006868C0F38100012807D06868C0F3810075
:10236000022809D16868C00306D52868800339D5DA
:1023700060680028E7D035E06068B0F5803F0BD09A
:1023800010B1B0F5A02F11D0286820F4803028605B
:10239000286820F4802002E0286840F4803028601B
:1023A000606890B1FFF77CFD06460AE0286840F4BB
:1023B00080202860F0E700BFFFF772FD801B6428D3
:1023C00073D828688003F7D50CE0FFF769FD06464F
:1023D00005E000BFFFF764FD801B6428F0D8286883
:1023E0008003F7D420789A4E80074FF001094FF010
:1023F000000839D5686810F00C0F07D06868C0F382
:102400008100022809D16868C00306D428688007C3
:1024100014D52069012808D110E02069B0B1C6F8B0
:102420000090FFF73DFD074605E00AE1FFF738FDA4
:10243000C01B0228C4D828688007F7D528686169BE
:1024400020F0F80040EAC10028600DE0C6F80080E6
:10245000FFF726FD074604E0FFF722FDC01B022818
:1024600023D828688007F7D4207800072CD579482E
:10247000A169D9B1C0F80090FFF712FD074604E04A
:10248000FFF70EFDC01B02280FD8686A8007F7D53A
:1024900071484FF4FA510068B0FBF1F0009000BFB2
:1024A0000098411E0091FAD20EE080E0C0F8008052
:1024B000FFF7F6FC074604E0FFF7F2FCC01B02281A
:1024C00075D8686A8007F7D42078400760D5E86936
:1024D0000027C00008D4E86940F08050E861E8694E
:1024E000012700F0805000905C480168C90513D4B2
:1024F0000168834641F480710160FFF7D1FC824698
:1025000006E000BFFFF7CCFCA0EB0A0064284ED821
:10251000DBF80000C005F5D5E06801280AD008B155
:10252000052813D0286A20F001002862286A20F0CC
:10253000040002E0286A40F001002862E06841F2ED
:10254000883B98B1FFF7ACFC82460BE0286A40F06C
:1025500004002862EEE700BFFFF7A2FCA0EB0A012F
:1025600059455AD8286A8007F6D50CE0FFF798FC41
:10257000824605E0FFF794FCA0EB0A0159454CD8D0
:10258000286A8007F6D41FB1E86920F08050E8611E
:10259000E06988B36968C1F38101022944D0022847
:1025A000C6F8608004D0FFF77BFC044638E034E0D6
:1025B000FFF776FC074604E0FFF772FCC01B022819
:1025C0002BD828688001F7D4206AB0F5803F05D168
:1025D0006868A16820F4003008436860D4E9080105
:1025E0000843696821F4741108436860C6F8609074
:1025F000FFF756FC044606E025E000BFFFF750FC5D
:10260000001B022809D828688001F7D51BE000BF0D
:10261000FFF746FC001B022802D90320BDE8F88F13
:1026200028688001F4D40EE00128F7D06868226A97
:1026300000F48031914204D1616A00F47010884244
:1026400001D00120EAE70020E8E700000010024086
:1026500000004242800442425000002000700040CE
:1026600010B5401EB0F1807F01D3012010BD4FF0A6
:10267000E02460610F21601702F049FC0020A06196
:1026800007202061002010BD70B590F83C20012A81
:102690002CD0012480F83C40022280F83D200368C1
:1026A0005A689D6822F070060A6832435A60104BDF
:1026B00002689A420ED00F4B9A420BD0B2F1804F73
:1026C00008D00D4B9A4205D00C4B9A4202D00C4BCD
:1026D0009A4204D1496825F080031943916080F83B
:1026E0003D40002180F83C10084670BD022070BDBE
:1026F000002C01400034014000040040000800406C
:10270000000C004010B5040003D094F83D0010B157
:1027100007E0012010BD002084F83C00204600F0B6
:102720001FF8022084F83D00211D206802F07AF98C
:10273000012084F8460084F83E0084F83F0084F8C5
:10274000400084F8410084F8420084F8430084F893
:10275000440084F8450084F83D00002010BD0000CE
:1027600008B500680649884208D10648C16941F0A9
:102770000201C161C06900F00200009008BD0000C4
:10278000000400400010024070B5044690F83C0080
:102790000025012817D0012684F83C60022084F827
:1027A0003D002068826822F0770222F47F42826036
:1027B0000868502838D00DDC20284FD005DC90B3B5
:1027C000102811D14AE0022070BD302846D04028A0
:1027D0000AD13BE060282FD070280DD0B0F5805F83
:1027E00003D0B0F5005F12D0012584F83D600020D1
:1027F00084F83C00284670BDCB68D1E901212068EF
:1028000002F063F92068816841F0770109E0CB6844
:10281000D1E90121206802F058F92068816841F46B
:1028200080418160E1E719E0CA684968206802F0E8
:1028300021FA5021206806E0CA684968206802F041
:102840002AFA6021206802F04AF9CEE7CA6849688E
:10285000206802F00FFA40212068F4E72268014660
:102860001046F0E72DE9F0410D46040003D094F83E
:102870003D0018B108E00120BDE8F081002084F897
:102880003C00204600F040F8022084F83D0020681B
:10289000816844F2070291438160211D206802F0A3
:1028A000C1F8226890689169166A2B68AF69034382
:1028B00040F20330814341EA0721A868EF690843E9
:1028C0004FF6FC418843E96840EA07200143286944
:1028D0002F6A000140EA0730084369686D6926F0F5
:1028E000220646EA0515294393602268906154F850
:1028F000460B0162012004F81F09E0752076E0769E
:102900002077A0750020B7E700B585B000210091C1
:102910000191029103911A4B02681A48C0219A4210
:1029200013D1C26942F00402C261C26902F004021A
:102930000492826942F0080282618069009100F08D
:10294000080004906946104815E0104B9A4214D1D3
:10295000826942F400528261826902F40052049258
:10296000826942F0100282618069009100F01000DB
:10297000049069460648FFF791F905B000BD0000D4
:102980000008004000100240000C014000340140EB
:102990000010014070B590F83E60044690F83F503A
:1029A00090F8423090F84320022021B104290ED043
:1029B000012E1BD114E0012E18D1012B16D184F861
:1029C0003E0084F8420001220021206820E0012D11
:1029D0000CD1012A0AD184F83F0084F8430014E0A6
:1029E000012D03D1012B01D1012A01D0012070BD9D
:1029F00084F83E0084F83F0084F8420084F84300E5
:102A000001220021206802F053F8012204212068ED
:102A100002F04EF82068016841F0010101600020D9
:102A200070BD000010B586B00021009101910291A7
:102A3000039100681349884221D11348816941F00C
:102A400004018161816901F004010491816941F00F
:102A5000080181618069022400F008000490C02010
:102A6000CDE90004694609480394FFF717F90320EC
:102A7000CDE90004694606480394FFF70FF906B054
:102A800010BD00000004004000100240000801409A
:102A9000000C014070B5044690F83C0000260D463D
:102AA00001280FD0012084F83C006AB1042A1DD00F
:102AB000082A2FD00C2A3FD00126002084F83C00A1
:102AC000304670BD022070BD206802F011F8206809
:102AD000816941F0080181612068816921F0040168
:102AE0008161206881692A69114311E0206802F040
:102AF0002FF82068816941F4006181612068816953
:102B000021F480618161206881692A6941EA02219A
:102B10008161D2E7206802F051F82068C16941F074
:102B20000801C1612068C16921F00401C161206808
:102B3000C1692A69114311E0206802F073F8206826
:102B4000C16941F40061C1612068C16921F48061FB
:102B5000C1612068C1692A6941EA0221C161ACE70B
:102B600010B5040003D094F83D0010B107E0012037
:102B700010BD002084F83C00204600F01EF8022022
:102B800084F83D00211D206801F04CFF012084F8ED
:102B9000460084F83E0084F83F0084F8400084F842
:102BA000410084F8420084F8430084F8440084F82B
:102BB000450084F83D00002010BD704710B5044664
:102BC000022249B104290ED0082913D094F84100FB
:102BD000012816D0012010BD94F83E000128F9D13B
:102BE00084F83E200FE094F83F000128F2D184F8E9
:102BF0003F2008E094F840000128EBD184F8402001
:102C000001E084F841200122206801F051FF1349BE
:102C10002068134A884201D0904203D1436C43F4A8
:102C200000434364206888420DD090420BD0B0F13D
:102C3000804F08D00B49884205D00B49884202D00A
:102C40000A49884204D1816801F00701062903D0AE
:102C5000016841F001010160002010BD002C01401D
:102C6000003401400004004000080040000C004017
:102C700070477047F8B5016804460868CA684B6930
:102C800010F00F0F4FF000055AD003F0010602F4C8
:102C90009077374365D0C10705D0D10503D5616C66
:102CA00041F001016164410705D5D90703D0616C8A
:102CB00041F002016164810705D5D90703D0616C39
:102CC00041F004016164010707D502F0200131439E
:102CD00003D0616C41F008016164616C00293BD054
:102CE000800604D5900602D5204602F01CF8206824
:102CF0004069616CC0F3801001F008010143204677
:102D00002BD001F0E9FF20684069400621D52068FA
:102D1000143050E8001F21F0400140E80012002A62
:102D2000F5D1E06BA8B16D494163E06BFEF762FC41
:102D3000002811D0E06B416B01B0BDE8F0400847BE
:102D400083060ED593060CD52046BDE8F84001F069
:102D5000EABF2046FFF78DFFF8BDFFF78AFF6564E5
:102D6000F8BD266B2023012E7CD1C6067AD5D60667
:102D700078D508684868009048694FF00206400618
:102D800040D5E16B086840680004000CE8D0A28DD3
:102D90008242E5D9E085886920282DD020680C3052
:102DA00050E8001F21F4807140E80012002AF5D19C
:102DB0002168143151E8000F20F0010041E80002C1
:102DC000002AF5D12068143050E8001F21F040019E
:102DD00040E80012002AF5D184F8423025632068CB
:102DE0000C3050E8001F21F0100140E80012002ACA
:102DF000F5D1E06BFEF7DAFB6663A08DE18D401A3A
:102E000081B22AE0A08DE18D401A81B2E08D0028C8
:102E1000A6D00029A4D022680C3252E8000F20F47A
:102E2000907042E80007002FF5D12068143050E878
:102E3000002F22F0010240E80027002FF5D184F88E
:102E40004230256320680C3050E8002F22F0100239
:102E500040E80023002BF5D166632046FFF708FF0A
:102E6000F8BDFFE705062BD5150629D594F84100D6
:102E70002128F5D1A068B0F5805F01D12069B0B1FB
:102E8000206A411C2162216800784860E08C401E65
:102E90000004000CE084E3D12068C16821F08001C7
:102EA000C1602068C16841F04001C160D8E7206A74
:102EB0000088C0F308004860206A801C2062E5E7B3
:102EC0004006CDD55006CBD5CA68204622F0400238
:102ED000CA6084F8413000F08FFAC1E7C94C00089D
:102EE00070B5040004D094F84100002510B106E04C
:102EF000012070BD84F84050204600F023F82420C3
:102F000084F841002068C16821F40051C160204666
:102F100001F06AFF2068016921F490410161206895
:102F2000416921F02A0141612068C16841F40051E2
:102F3000C1606564202084F8410084F84200656324
:102F4000002070BD70B586B00024009401940294F6
:102F50000394444D0368444802210322AB422ED11E
:102F6000C36943F48013C361C36903F480130493FA
:102F7000836943F010038361836903F010030493B2
:102F8000836943F0200383618069039200F020008D
:102F90000490C802CDE9000169463448FEF77EFE80
:102FA0000420CDE90004694631480294FEF776FE1C
:102FB000012211463520FEF7E3FF35204EE02D4E6D
:102FC0003515B34221D1836943F48043836183691A
:102FD00003F480430493836943F0040383618069AD
:102FE000254E00F0040004906810CDE90001039222
:102FF00069463046FEF752FECDE900546946304638
:103000000294FEF74BFE06B070BD1C4EB342FAD1DF
:10301000C36943F48023C361C36903F48023049329
:10302000836943F0080383618069CDE9005100F0B2
:103030000800CDE90320124D69462846FEF72EFE12
:10304000E814CDE90004694628460294FEF726FEFE
:10305000012211462720FEF793FF2720FEF782FF6B
:10306000D1E7000000500040001002400010014075
:1030700000140140003801400008014000480040B1
:10308000000C014090F84230202B01D00220704704
:1030900021B11AB10023036301F002BF0120704780
:1030A0002DE9F04707460068C44901250024DFF8F0
:1030B00010834FF00209884278D198F80010C14877
:1030C0004A1CD2B23A2971D2DFE801F01D283342FE
:1030D000474E535861715861715861715861715808
:1030E00061715861715861715861715861715861AD
:1030F000715861715861715861715861715861718D
:10310000586171848A9098F80810A52917D1017028
:1031100088F8005098F80100A53045E098F80810AC
:103120005A290AD1417088F8009098F801005A3065
:103130003AE098F808103A2902D088F8004068E090
:103140008170032088F8000098F801003A302BE0E5
:1031500098F80810C170042003E098F80810017175
:10316000052088F800001CE098F80810417106203E
:10317000F7E798F8081081710720F2E798F8023015
:1031800098F8081003EB43031844C17107E098F85E
:10319000023098F8081003EB43031844017288F8D2
:1031A000002098F80100084488F8010033E098F8FE
:1031B000021098F8083001EB41063044491C437274
:1031C00088F8002098F80100184488F8010088F871
:1031D000021020E098F8081080F837103820C0E777
:1031E00098F8081080F838103920BAE798F80810D5
:1031F00080F8391088F8004088F8024098F80100FB
:10320000814202D102F054FA03E03A216D48FDF701
:10321000F7F888F801406C493868884270D16848EE
:103220006A4F801D6A490078C8F80C00694A6A4BE9
:103230006A4E88F80700592816D0582817D00A284F
:103240001ADD5A282DD041283DD045282ED04228BD
:1032500030D043282ED044282CD046282FD04728C1
:103260002DD048282BD003E0A7F8009000E03D8047
:103270000C8014801C8034800A282ADA3D800700E4
:103280000FD001281FD0052810D002281DD00328F8
:103290001BD0042819D0062827D0072825D00828B5
:1032A00023D00C80148003E0348012E00C80158061
:1032B0001C80F9E70C8014801C803580DCE70C80D2
:1032C00014801D80D7E70D80ECE70C8014801C80F3
:1032D0003580434946467B280BD07D2811D0F278B3
:1032E000012A07D0022A0ED05EE00C8014801D80D7
:1032F000DAE7F57032798854521C88F8042053E0DC
:103300005AE086F80390C878502806D048782328D9
:1033100042D030797071894629E0324805703BE02F
:103320003179081A05F0BDFA02460B4600202E49F5
:1033300004F0C6FA054670790F468046484410F8F6
:10334000010C303805F0ADFA2A463B4605F010FB7B
:1033500005460F46306905F01BFE2A463B4605F040
:103360005DF805F029F83061A8F101007071C0B274
:103370000428D5D299F80100303802280CD2DFE8B1
:1033800000F00106306905F059FF184903E0306983
:1033900005F054FF16490860F470347174713221DD
:1033A0000F483461FDF72CF8BDE8F04704490122CD
:1033B000891D1048FFF766BEBDE8F0870050004049
:1033C000CC000020701000200048004002000020C7
:1033D0000E00002010000020120000201400002029
:1033E000360900203800002000002440640100203D
:1033F00060010020B40400207047FEE770B50D4660
:10340000044600F0C1F8204600F08EF800F004F900
:10341000284600F089F800F0FFF800F0B5F8641CC9
:10342000E0B200F081F800F0F7F8002000F046F874
:10343000044600F0D1F8204670BD000070B50D4C78
:103440000025C4F8B8510C48016821F070410160B2
:10345000016841F040510160C4F8BC51012004F5FD
:10346000DC7402F04FFA0120206002F04BFA256074
:1034700070BD000000802142040C014070B50D4C6D
:103480000025C4F8B8510C48016821F07041016072
:10349000016841F0405101600126C4F8BC6130462A
:1034A00004F5DC7402F02EFA2660012002F02AFAFC
:1034B000256070BD00802142040C01402DE9F047D9
:1034C000814617480024016821F0704101600168BD
:1034D00041F000410160134E254627464FF0010898
:1034E000C6F8B871022002F00DFAC6F8B88160067D
:1034F000040ED6F83C0108B1641CE4B2022002F0CC
:1035000001FA6D1CEDB2082DEAD3B9F1000F02D01B
:10351000FFF794FF01E0FFF7B1FF2046BDE8F08719
:10352000040C0140008021422DE9F0410646144878
:10353000016821F070410160016841F04051016073
:10354000104C0027C4F8B8713D464FF00108F0094F
:10355000C4F8BC017006060E012002F0D3F9C4F8CD
:10356000B881012002F0CEF9C4F8B871012002F050
:10357000C9F96D1CEDB2082DE9D3BDE8F08100005A
:10358000040C01400080214270B51148016821F00F
:1035900070410160016841F0405101600D4C012013
:1035A000C4F8BC01D4F83C1149B1C4F8B80102F028
:1035B000A9F90025C4F8BC51D4F83C0108B1002099
:1035C00070BD012002F09EF9C4F8B851012070BD11
:1035D000040C0140008021420D4810B5016821F023
:1035E00070410160016841F040510160094C0020C8
:1035F000C4F8B801C4F8BC01012004F5DC7402F081
:1036000081F9012020606060BDE8104002F07AB9C5
:10361000040C01400080214270B513480024016869
:1036200021F070410160016841F0004101600F4DDF
:103630000126C5F8BC61304602F064F9C5F8B861EE
:1036400007E0641CE4B2322C03D9FFF7C5FF002069
:1036500070BD012002F056F9D5F83C010028F0D1E8
:10366000C5F8B801012070BD040C01400080214262
:1036700010B51446FFF7C2FE2070012010BDF8B54A
:1036800015461C460E4607466A46FFF7F1FF012025
:103690009DF80010A8400CB1084301E021EA0000A9
:1036A000C2B28DF800203146384600F02BF8F8BD44
:1036B0002DE9F84314461D460F4680466A46089E8B
:1036C000FFF7D6FF00281BD0611CFF20C4F10802C1
:1036D00000FA01F12A44521ED0400143C5F108000E
:1036E0008640F2B2C4F10700C2409DF800000840D5
:1036F00010438DF80000C2B23946404600F002F88F
:10370000BDE8F88307B502AB012200F001F80EBD59
:103710002DE9F0411E461546884607460024FFF76E
:1037200033FF3846FFF700FFFFF776FF4046FFF70D
:10373000FBFEFFF771FF06E0305DFFF7F5FEFFF7D8
:103740006BFF641CE4B2AC42F6D3FFF745FF0120E7
:10375000BDE8F08170B505F0A5FE154C0546216F5A
:1037600005F0AAFE0646206E05F0A4FD314605F0E0
:10377000CDFD0646E06D05F09DFD294605F0C6FD30
:10378000314605F031FC0646606F05F093FD314689
:1037900005F02AFC05F052FDC4E91C50054861788B
:1037A0000078084302D0002060676070606F70BDD1
:1037B000040100200400002070B505F073FE154CD4
:1037C0000546A16F05F078FE0646206E05F072FDF5
:1037D000314605F09BFD0646E06D05F06BFD294680
:1037E00005F094FD314605F0FFFB0646E06F05F05D
:1037F00061FD314605F0F8FB05F020FDC4E91E50DF
:10380000054861780078084302D00020E0676070C6
:10381000E06F70BD0401002004000020410607484D
:10382000826942F0010282610548426822F0E0624A
:10383000426042680A434260704700000010024044
:10384000000001402DE9F0470F4605F04BFD014611
:103850004FF07E5005F030FC354905F057FD354CF2
:1038600081463548A178002541B16570E580258104
:103870006581A581D0F8001101B9A5708046D0F806
:103880000001012601280CD1A07850B9667060892A
:10389000401C80B26081B84203D965812089401CF8
:1038A00020814946254805F007FC05F0E3FC218905
:1038B00080B2884203D2A6700320BDE8F08760780A
:1038C00098B3D8F8000148B9A089401C80B2A08103
:1038D000B84203D9A581E088401CE08049461848D9
:1038E00005F0EAFB05F0C6FCE58880B2154FA8425A
:1038F0000FD24946384605F0DFFB05F0BBFC80B22D
:10390000A84206D9D8F8000101280FD1A6700220DC
:10391000D3E74946384605F0CFFB05F0ABFC80B253
:10392000A84203D2A6700120C7E7FFE70020C4E742
:1039300000007A4458000020000021420000FA43B1
:1039400000004842000096432DE9F04F044691489C
:10395000ABB011AFB0E86810299287E868106CC866
:103960000DAF87E86C0050E91423CDE9272350E917
:103970001223CDE9252350F8588900F15C031FAFCD
:1039800093E80C109346199350F8682B2A926CC850
:1039900087E86C0050E91820CDE92320002007902B
:1039A00008900490059006901B901C9009900A9036
:1039B0000B9003900C901D901E901A90E2460846C2
:1039C00005F0E6FA05460E4684F0004005F0E0FA00
:1039D0002A46334601F0ACFD04F0EEFC6E4F159024
:1039E0000DAC0222CDE9004707AE01231146029635
:1039F000104603F06FFD1BAA29A927A88DE8070030
:103A000001231A461946022003F064FD1B9907980A
:103A100005F0EAFA07F1080528601C99089805F0F6
:103A2000E3FA68600DF10C0905F128010094022306
:103A3000CDE901191A461946184603F04BFD09A9AC
:103A40001FAACDF80090CDE9012102231A4619469C
:103A5000184603F03FFD4146099805F0C5FA4F4C62
:103A6000594620600A9805F0BFFA606019990B98D2
:103A700005F0BAFAA06051460C9805F0B5FAE0607E
:103A80000DF1940A0223CDE900A40DF1740B1A463E
:103A9000CDF808B01946012003F01CFD0DF16808AF
:103AA00023A9CDF800B0CDE9011801230222114667
:103AB000184603F00FFD2A991A9805F095FA014669
:103AC0004FF07E5005F0F8FA1A9023A8CDE9004097
:103AD0000222012311460296104603F0FBFC05F179
:103AE000080B01238DE840091A461946022003F00D
:103AF000F1FCCDF800A0CDE90158012302221146C6
:103B0000184603F0E7FC1A99159805F0D5FC1A90B1
:103B1000CDF800B00123CDE901861A4619460220EE
:103B200003F0D8FC0799286805F05EFA3860089918
:103B3000686805F059FA7860CDF800B0CDE901A9C0
:103B4000022301221146184603F0C4FC0399119880
:103B500005F0B2FC03900499129805F0ADFC0490B6
:103B60000599139805F0A8FC05900699149805F09E
:103B7000A3FC069005F12800CDF800900223CDE9C2
:103B800001401A461946184603F0A4FC38682BB0C9
:103B9000BDE8F08F00AE00087C020020B4170020C2
:103BA0002DE9F04F04469348ABB000F178030F467F
:103BB00093E8681011A9299281E8681000F188053E
:103BC0000DF134084ECD88E84E00D0E90812CDE959
:103BD0002712D0E90A12CDE92512B5E80E10884661
:103BE000CDF858C0416892469B462A912ECD1FAE13
:103BF00086E82E00D0E90C10CDE9231000200790B4
:103C000008900490059006901B901C9009900A90D3
:103C10000B9003900C901D901E901A90384605F062
:103C2000B7F906460D4684F0004005F0B1F932467A
:103C30002B4601F07DFC04F0BFFB6F4F15900DACDF
:103C40000222CDE9004707AE012311460296104635
:103C500003F040FC1BAA29A927A88DE8070001232F
:103C60001A461946022003F035FC1B99079805F007
:103C7000BBF907F1080528601C99089805F0B4F90C
:103C800068600DF10C0905F1200000940223CDE9D4
:103C900001091A461946184603F01CFC09A91FAA77
:103CA000CDF80090CDE9012102231A4619461846A5
:103CB00003F010FC4146099805F096F94F4C514627
:103CC00020600A9805F090F9606059460B9805F05D
:103CD0008BF9A06016990C9805F086F9E0600DF15B
:103CE000940A0223CDE900A40DF1740B1A46CDF815
:103CF00008B01946012003F0EDFB0DF1680823A977
:103D0000CDF800B0CDE90118012302221146184672
:103D100003F0E0FB2A991A9805F066F901464FF086
:103D20007E5005F0C9F91A9023A8CDE9004002227F
:103D3000012311460296104603F0CCFB05F1080B57
:103D400001238DE840091A461946022003F0C2FB00
:103D5000CDF800A0CDE901580123022211461846F2
:103D600003F0B8FB1A99159805F0A6FB1A90CDF848
:103D700000B00123CDE901861A461946022003F05E
:103D8000A9FB0799286805F02FF938600899686839
:103D900005F02AF97860CDF800B0CDE901A9022339
:103DA00001221146184603F095FB0399119805F07E
:103DB00083FB03900499129805F07EFB049005990B
:103DC000139805F079FB05900699149805F074FB9B
:103DD000069005F12001CDF800900223CDE90141C4
:103DE0001A461946184603F075FB38682BB0BDE833
:103DF000F08F0000C8AD000894020020C417002016
:103E0000094A68B109490B685B1C0B60834206D103
:103E1000D2F88801C043C2F88801002008607047CA
:103E20000120C2F88801704700002242540000209F
:103E300010B5022000F011F8032000F020F8002057
:103E400000F014F8002000F02FF8002000F026F811
:103E5000BDE81040002000F01BB808B50323009017
:103E600002226B21D020FFF723FC08BD08B50223F6
:103E7000009004221C21D020FFF71AFC08BD08B5D1
:103E80000223009004221B21D020FFF711FC08BD63
:103E9000034601223721D020FFF7F1BB034605225C
:103EA0006A21D020FFF7EBBB034606226B21D0200E
:103EB000FFF7E5BB0C4810B50A490160002181609D
:103EC000017301754FF46022C261416001210161FB
:103ED000FDF7B0F908B1FCF734FFBDE81040024827
:103EE000FDF7BAB800280140CC0200202DE9F04FC0
:103EF00085B0002451480094019402940394816990
:103F000041F010018161816901F010010491816922
:103F100041F020018161816901F0200104918169F2
:103F200041F004018161816901F00401049181691A
:103F300041F0080181618069DFF8049100F0080018
:103F40000490002244F210314846FDF7A3FF0122FD
:103F500004214846FDF79EFFDFF8E8B04FF44047E4
:103F6000012239465846FDF795FFDFF8DCA04FF4F3
:103F70000048002241465046FDF78CFF00223821C0
:103F80005846FDF787FF4FF40050CDE9000469461D
:103F900048460294FDF782FE01254FF48040CDE9AA
:103FA000000569464846CDE90245FDF777FE4FF426
:103FB00045700326CDE90005CDE90246694648462D
:103FC000FDF76CFECDE90054694650460294FDF7BA
:103FD00065FE00970396CDE9015469465846FDF702
:103FE0005DFE0220CDE90240CDE9008569465046DC
:103FF000FDF754FE3820CDE9000569465846CDE965
:104000000245FDF74BFE28028DE83100694658460F
:10401000FDF744FE680200900C48CDE901056946B1
:104020005846FDF73BFE012202211720FDF7A8FFAD
:104030001720FDF797FF05B0BDE8F08F0010024094
:1040400000100140000C0140000801400000211058
:1040500010B58EB000240794089409940A940B9428
:104060001C2168460C94FCF7EDF932483049C0E950
:10407000001441F61F41C0E90241802104618161C1
:10408000FEF740FB08B1FCF75CFE4FF48050079050
:1040900007A92848FEF778FB08B1FCF752FE25482F
:1040A000FEF75EFD08B1FCF74CFE0B940BA921480E
:1040B0000C94FEF7E9FA08B1FCF743FE6020CDE965
:1040C00000040294002269461A480494FEF7E2FCB8
:1040D00008B1FCF736FE042269461648FEF7DAFC02
:1040E00008B1FCF72EFE082269461248FEF7D2FC02
:1040F00008B1FCF726FE0C2269460E48FEF7CAFC02
:1041000008B1FCF71EFE00210A48FEF757FD042106
:104110000848FEF753FD08210648FEF74FFD0C2125
:104120000448FEF74BFD0348FEF77CFC0EB010BDC3
:1041300000040040FC02002010B58CB02421684629
:10414000FCF780F900241848099416490A94C0E93C
:1041500000144FF6FF71C0E902410461846103203D
:10416000CDE900040120CDE902040A210491CDE942
:104170000540CDE9074169460B48FEF773FB08B1DE
:10418000FCF7DFFD099409A907480A94FEF77CFAB9
:1041900008B1FCF7D6FD3C210348FEF7FBFB0CB051
:1041A00010BD0000000800404403002010B58CB092
:1041B00024216846FCF746F900241848099416495A
:1041C0000A94C0E900144FF6FF71C0E9024104618E
:1041D000446184610320CDE900040120CDE902049B
:1041E0000A210491CDE90540CDE9074169460B4814
:1041F000FEF738FB08B1FCF7A4FD099409A90748AC
:104200000A94FEF741FA08B1FCF79BFD3C210348F4
:10421000FEF7C0FB0CB010BD003401408C03002041
:104220000E4810B50C4901604FF461314160002126
:1042300081600C22C160C0E904128161C161FEF796
:104240004FFE08B1FCF77DFDBDE810400122044996
:104250000248FEF717BF0000005000402404002071
:10426000D40000200C4810B50A4901604FF4E13138
:104270004160002181600C22C160C0E904128161AB
:10428000C161FEF72DFE002803D0BDE81040FCF709
:1042900058BD10BD003801406C0400200E4810B518
:1042A0000C4901604FF416514160002181600C22DD
:1042B000C160C0E904128161C161FEF711FE08B15D
:1042C000FCF73FFDBDE81040012204490248FEF71B
:1042D000D9BE000000480040B4040020D2000020F5
:1042E000FEE7FEE72DE9F0474148007800287CD141
:1042F0004048434C404E0188404F0025206801292A
:1043000012D040490988012926D03F493F4E404FED
:104310000988DFF80081DFF80091012935D03F4995
:104320000988012948D05DE004F032FE32463B4660
:1043300004F074F804F040F82060606804F028FE8F
:1043400032463B4604F06AF804F036F860603448C0
:10435000A060E060334816E004F01AFE32463B46A7
:1043600004F02CFD04F028F82060606804F010FED2
:1043700032463B4604F022FD04F01EF860602A48F5
:10438000A060E060294820612CE004F001FE324684
:104390003B4604F013FD04F00FF82060606804F061
:1043A000F7FD32463B4604F039F804F005F8211DCC
:1043B000256181E8010315E004F0EAFD32463B4641
:1043C00004F02CF803F0F8FF2060606804F0E0FDD2
:1043D00032463B4604F0F2FC03F0EEFFC4E901096B
:1043E000C4E90385A560E5602561BDE8F0870000AC
:1043F000090000200E0000209A9999999999B93FD7
:104400008401002010000020120000207B14AE4721
:10441000E17A843F6F1283BA6F12833A140000204E
:104420000AD7233C4DF38E3D0AD723BC4DF38EBDF6
:1044300010B40021084B0A465FF0000003EBC004F3
:10444000401CC0B262548028F8D3491CC9B2082964
:10445000F2D310BC00F09CB8FC04002010B57F28FB
:1044600016D83F2914D80723A3EBD10301F0070185
:10447000C1F107040121A140064CDBB204EBC000EE
:10448000002AC25CC9B201D00A4300E08A43C25488
:1044900010BD0000FC04002010B50220FFF7BEF99B
:1044A0000120FFF7BBF9394C0020C4F890016420CB
:1044B00004F5C87401F00CFA012020600021AE2040
:1044C00000F030F90021D52000F02CF90021502017
:1044D00000F028F90021A82000F024F900213F2055
:1044E00000F020F90021D32000F01CF9002108463B
:1044F00000F018F90021402000F014F900218D206F
:1045000000F010F90021142000F00CF90021202007
:1045100000F008F90021022000F004F90021A12098
:1045200000F000F90021C02000F0FCF80021DA20A2
:1045300000F0F8F80021122000F0F4F800218120AA
:1045400000F0F0F80021EF2000F0ECF80021D92075
:1045500000F0E8F80021F12000F0E4F80021DB2071
:1045600000F0E0F80021302000F0DCF80021A42069
:1045700000F0D8F80021A62000F0D4F80021AF20E8
:1045800000F0D0F8BDE81040FFF752BF0080214294
:1045900070B5114E002400BF04F1B000C0B200217C
:1045A00000F0C0F80021084600F0BCF800211020FF
:1045B00000F0B8F85FF0000506EBC5000121005DD2
:1045C00000F0B0F86D1CEDB2802DF5D3641CE4B2A0
:1045D000082CE1D370BD0000FC0400202DE9FF4F42
:1045E000203A1F460C46894602F0FF0A0025DDF8F6
:1045F00034B032E00C2F09D01A4901EB0A104FF009
:104600000008465D300607D55A4609E016490AEB10
:104610004A0001EB8000F2E7BBF1000F12D000224C
:1046200021460098FFF71AFF7006641C060EE4B2DC
:10463000A4EB0900B84207D100984C46401CC0B218
:10464000009008E00122EBE708F1010000F0FF080C
:10465000B8F1080FD6D36D1CEDB2BD42CAD3BDE888
:10466000FF8F00008E9B00081A9700082DE9FF4F6E
:1046700081B00026DDF838A01D46934681463446B9
:104680004FF001084FEA5A0727E0281B401EC1B22D
:104690000A2002F06EFFBBFBF0F00A21B0FBF1F242
:1046A00001FB120026B9691E8C4201DA48B10126CD
:1046B0003030C2B207FB0490C0B25346CDF8008040
:1046C00006E007FB0490C0B253462022CDF80080DC
:1046D0000299FFF783FF641CE4B2AC42D5D305B066
:1046E000BDE8F08FF8B516460D460446012714E0E4
:1046F0007A2C02D900241035EDB23A2D03D90024CA
:104700002546FFF795FE009732780C232946204670
:10471000FFF764FF0834E4B2761C30780028E7D154
:10472000F8BD000070B500250E4A012311B1C2F892
:104730008C3101E0C2F88C510B4C0021C4F8B85107
:10474000060602D5C2F8943101E0C2F89451C4F8CB
:10475000B8314006491C000EC9B20829EED3C2F890
:104760008C3170BD0080214200002242884200DD71
:104770000846904200DA1046704770472DE9F04F26
:1047800089B0684C07A8CDE9004004F1260106ABCA
:1047900002AA881F01F020FA2088C0057ED5029861
:1047A00004F088FD6FF01D06314604F05AFF804684
:1047B0006060039804F07EFD314604F052FF074626
:1047C000A060049804F076FD314604F04AFF0546E7
:1047D000E060059804F06EFD314604F042FF0646A5
:1047E00020610121404604F03CFF294604F08EFD83
:1047F00005464FF040484146384604F087FD3146B3
:1048000004F084FD294604F0EFFB04F0C1FB00F046
:1048100047FCDFF814A14FF066394A46534604F0CE
:10482000A7F803F0C9FD6061E0680121054604F0C6
:1048300018FF8346294604F069FD0546A0684146F5
:10484000064604F063FD314604F060FD294604F09D
:1048500033FE4FF07E5104F0C7FB04F099FB07468E
:104860000D460121606804F0FCFE314604F04EFD67
:1048700006465846216904F049FD314604F0B4FB70
:1048800004F086FB3A462B4600F052FE4A46534659
:1048900004F06EF803F090FDA06100E03FE02169B4
:1048A0000191084604F032FDE16807460846009190
:1048B00004F02CFDA16806468B46584604F026FD00
:1048C000616805468846404604F020FD294604F00C
:1048D0008BFB314604F0F0FD394604F0EDFD04F0A9
:1048E00057FB06460D464046019904F00FFD07466A
:1048F0005846009904F00AFD394604F075FB012181
:1049000004F0AFFE04F044FB32462B4600F010FEEC
:104910004A46534604F02CF803F04EFDE06109B01E
:10492000BDE8F08F9400002066A64C4000210328CB
:1049300005D0042805D0082805D000207047044A77
:1049400002E0044A00E0044A1068116000B27047B7
:104950002404004024080040243401407047000033
:1049600010B50F4B4FF4E1521C1D002804DD1A60F6
:10497000C0F5E150206003E000F5E15018602260CE
:10498000074B0833181D002904DDC1F5E1511960FA
:10499000026010BD1A6001F5E151016010BD000018
:1049A00034040040FDF782BA30B595B0282168463E
:1049B000FBF748FD14210AA8FBF744FD18210FA8B6
:1049C000FBF740FD01210804CDE900100025029508
:1049D00002240491CDE907404FF4E01009906846A5
:1049E000FDF7AEFC08B172B6FEE70AA90F2081E818
:1049F00031004FF48060CDE90D0502210AA8FDF7D2
:104A0000C3FB08B172B6FEE74FF4004011900F945B
:104A10000FA8FDF743FB002801D072B6FEE715B0E2
:104A200030BD7047F0B502681C4B1D4D1D4E1E4F2A
:104A30001E4C4FF0804C984209D0A04207D06045F0
:104A400005D0A84203D0B04201D0B84204D122F030
:104A5000700E4A6842EA0E02984209D0A04207D07E
:104A6000604505D0A84203D0B04201D0B84203D17E
:104A700022F44075CA682A434D6922F080022A4315
:104A800002608A68C2620A688262984201D0A042CB
:104A900001D10969016301214161F0BD002C014090
:104AA0000004004000080040000C004000340140B9
:104AB00010B501F01F030121046A99408C43046280
:104AC000016A9A401143016210BD10B5846842EA40
:104AD000032224F47F440A432243826010BD82688B
:104AE00022F070020A4342F0070181607047000023
:104AF000F0B5036A026A22F0010202624268846928
:104B0000124E24F073050C682C4323F002058B68C9
:104B10002B430D4DA84201D0B04205D123F0080728
:104B2000CB683B4323F00403A84201D0B04205D137
:104B30004D6922F4407215438A692A4342608461B8
:104B4000496841630362F0BD002C0140003401401C
:104B5000F0B5026A036A23F01003036243688469B4
:104B60000D6824F4E64444EA05248D6822F020020E
:104B700042EA05120F4D104EA84201D0B04206D1B4
:104B8000CF6822F0800242EA071222F04002A842D7
:104B900001D0B04207D14D6923F4406343EA850355
:104BA0008D6943EA850343608461496881630262D9
:104BB000F0BD0000002C014000340140F0B5026A55
:104BC000036A23F4807303624368C46922F40072A9
:104BD00024F073050C68124E2C438D6842EA0522BE
:104BE0000E4DA84201D0B04206D1CF6822F4006237
:104BF00042EA072222F48062A84201D0B04207D1E3
:104C00004D6923F4405343EA05138D6943EA0513C4
:104C10004360C4614968C1630262F0BD002C014079
:104C20000034014030B5046A026A22F48052026204
:104C30004268C3690D6823F4E64343EA05238D689F
:104C400024F4005444EA0534084DA84202D0084D2B
:104C5000A84204D14D6922F4804242EA85124260A2
:104C6000C36149680164046230BD0000002C01404A
:104C70000034014010B5036A046A24F001040462A0
:104C8000846924F0F00444EA021423F00A020A437F
:104C90008461026210BD10B5036A046A24F0100436
:104CA0000462846923F0A00324F4704444EA0232CD
:104CB00043EA01118261016210BD00000148FDF765
:104CC000D9BF00002404002010B5406A0021C1852E
:104CD000C184FDF7CEFF10BD01680C3151E8002FF3
:104CE00022F4907241E80023002BF5D101681431C1
:104CF00051E8002F22F0010241E80023002BF5D1FA
:104D0000016B012909D101680C3151E8002F22F013
:104D1000100241E80023002BF5D1202180F8421039
:104D200000210163704708B590F84210222901D094
:104D3000022008BD82684FF480539A4201D1016974
:104D400021B1816A9A421BD04AB10AE00268816AA5
:104D50005268C2F308020A80816A891C08E002696D
:104D600072B10268526802F07F020A70816A491CBF
:104D70008162C18D491E0904090CC18503D01BE065
:104D800002685268F1E70168CA6822F02002CA602E
:104D90000168CA6822F48072CA6001684A6922F018
:104DA00001024A61202180F8421000214163026B18
:104DB000012A03D0FEF774F9002008BD01630168E1
:104DC0000C3151E8002F22F0100241E80023002BA3
:104DD000F5D101680A68D20602D50A6849680091CF
:104DE000818DFDF745FFE7E770B50446006801696E
:104DF000E26821F44051114301612169A068084330
:104E0000616908432168CA6841F20C639A4302430E
:104E1000CA6020684169A26921F44071114341616F
:104E20001E492068884202D1FDF754FA01E0FDF7DF
:104E300041FA00EBC00101EB0012606864218000C0
:104E4000B2FBF0F3B3FBF1F36FF018067343B2FB60
:104E5000F0F5B2FBF0F605EB8305322303EB051505
:104E6000B5FBF1F5B6FBF1F605F0F00505EB06151F
:104E7000B2FBF0F6B2FBF0F0B0FBF1F06FF018020D
:104E8000504306EB800003EB0010B0FBF1F021680B
:104E900000F00F002844886070BD00000038014019
:104EA00081628285C28500214164222180F84210FE
:104EB000016921B10168CA6842F48072CA60016860
:104EC0004A6942F001024A610068C16841F020016C
:104ED000C1600020704700000148FDF7CBBE000014
:104EE000B4040020FEE7490050EAC12018BF0420A6
:104EF0004A0D18BF40F0010040F2FF72B2EB515F63
:104F000008BF40F00200012808BF052070470907CC
:104F1000090E002804DB00F1E02080F8001470473F
:104F200000F00F0000F1E02080F8141D70472DE91B
:104F3000F0414F1E00EBC7010446D1E900011546C0
:104F40001E4637F006020DD02A46334603F010FD08
:104F50007F1E04EBC703D3E9002303F05FFA37F0A9
:104F60000602F1D1022F25D0042F13D0062F18BF2F
:104F7000BDE8F0812A46334603F0FAFCD4E90A235F
:104F800003F04CFA2A46334603F0F2FCD4E9082336
:104F900003F044FA2A46334603F0EAFCD4E9062338
:104FA00003F03CFA2A46334603F0E2FCD4E904233A
:104FB00003F034FA2A46334603F0DAFCD4E902233C
:104FC00003F02CFA2A46334603F0D2FCD4E900233E
:104FD000BDE8F04103F022BA002213461046014911
:104FE00003F0D8BA0000F03F012204F00CBB03F03C
:104FF00015BA002213461046114603F0CBBA40F210
:10500000013200204FF0E04104F0FDBA024A0020D6
:10501000110704F0F8BA000001FDFFFF704700001F
:105020002DE9FE4F07460E460025684601F038F987
:1050300000246FF00F0AE8464FF0010957F82400EA
:1050400056F82410401A00D5404204F033F9514676
:1050500004F007FB58F8241011F0FF4F0BD004F0B8
:105060002BF84FF07E5104F027FA0A4920F0004057
:10507000884205DC07E0084908440849884202D311
:1050800009FA04F00543641C032CD7DB2846BDE86D
:10509000FE8F0000295C0F3E666666C19A99D900B2
:1050A0002DE9F04D8D4F21F0004A86B005460C46A3
:1050B000BA452ADBAAEB070028430AD08848824574
:1050C00001DC1AD1CDB106B02846BDE8F04DFFF79E
:1050D0008BBF844A844B284603F04AFC07460E46A1
:1050E000824A834B2846214603F042FC06B03A46EA
:1050F0003346BDE8F04D03F091B90120FBF749FAC2
:1051000006B0BDE8F04DFFF774BF7A48824542DA39
:10511000BAF1795F0BDA2846FFF7E5FE042808BFED
:10512000FFF774FF284606B02146BDE8F08D2A46F9
:105130000B46104603F01CFC834602466E480E46A2
:105140000B4606217844FFF7F2FE5A46334603F039
:105150000FFC804669488A465A4633460421784403
:10516000FFF7E5FE5A46334603F002FC00223B46B9
:1051700003F054F902460B464046514603F00AFA42
:105180002A46234603F0F4FB06B02A462346BDE830
:10519000F04D03F043B9284624F0004100223D467B
:1051A0003B4603F019FD4FF0FF3204F02CFA06469F
:1051B000024653480F460B4606217844FFF7B7FED8
:1051C00032463B4603F0D4FBCDE900014D48324660
:1051D0003B4604217844FFF7AAFE32463B4603F0E3
:1051E000C7FB00222B4603F019F983460291304693
:1051F000394603F0BBF8804643480D46504517DC5E
:10520000DDE900015A46029B03F0C4F942462B46F1
:1052100003F0AEFB42462B4603F000F9012204F0F6
:10522000F2F9304A304B03F0C9FD304A304B4CE0C4
:105230004FF0000A52460B46404603F0EFF8CDE926
:10524000031052462B461046194603F091FB324696
:105250003B4603F0C1FCDDE9033203F09BF906464F
:105260000F46DDE900015A46029B03F093F983469D
:10527000009101223046394604F0C5F9194A1A4B0B
:1052800003F0AAFC06460F4601224046294604F0D8
:10529000BAF95A46009B03F06BFB32463B4603F0DB
:1052A0008DFD06460F4601225046294604F0ABF913
:1052B0000E4DDFF858802A46434603F08DFC3246F7
:1052C0003B4603F089FC2A46434603F085FC002C4C
:1052D000D8BF81F0004106B0BDE8F08D0000F03F7E
:1052E0000000F07F075C143326A6913C182D44542F
:1052F000FB21F93F0000E03F385D00004E5D0000FB
:10530000C25C0000D85C00003333EF3FFB21E93F73
:105310002DE9F84F04460D4621F0004000917349F5
:10532000814211DC7249884201DC06D12CB1204651
:105330002946BDE8F84FFFF757BE6E48002DCCBF99
:105340006D496E49BDE8F88F6D49814211DD6D49A7
:105350008142D8BF4FF0FF366DDD20462946FFF76A
:10536000C2FD042808BFFFF751FE20462946BDE8CC
:10537000F88F6549654F25F00045814233DD64496A
:10538000814219DD002632464FF0804320462946EF
:1053900003F044F880468A4601222046294604F05C
:1053A00032F900223B4603F009FD4246534603F022
:1053B000F1F804460D463EE001260022BA463B467F
:1053C0002046294603F02AF880460F46002253461D
:1053D0002046294603F0F2FC42463B4603F0DAF849
:1053E00004460D4627E04B4981421BDDDFF828A12A
:1053F0000226002253462046294603F0B9FA00222D
:105400003B4603F00BF880460F46002253462046E9
:10541000294603F0D3FC42463B4603F0BBF8044662
:105420000D4608E0032622462B4600203B4903F0A8
:10543000B1F804460D4622462B461046194603F0A5
:1054400097FA8B46824602460B4603F091FA0746CE
:105450000246334888460B4606217844FFF767FD2D
:1054600052465B4603F084FA82462E488B463A4603
:10547000434605217844FFF75AFD3A46434603F078
:1054800077FA02460B46002E504659460CDA02F0D7
:10549000C5FF22462B4603F06BFA01B022462B468D
:1054A000BDE8F04F03F098BB02F0B8FF22462B4650
:1054B00003F05EFA1C4A7A4402EBC603D3E90023E8
:1054C00003F07CFC22462B4603F078FC174A7A4412
:1054D00002EBC603D3E9002303F07EFB009A002A07
:1054E000B8BF81F00041BDE8F88F00000000104413
:1054F0000000F07F182D4454FB21F93FFB21F9BF38
:105500000000DC3F0000203E0000F33F0000F03FC1
:105510000000E63F008003400000F83F0000F0BFBD
:10552000625B0000205B0000BE5A0000865A00004B
:105530002DE9F04D9446CCF1000423F000464CEAEE
:105540000404524F46EAD4749A46884621F0004239
:10555000BC4206D8454240EA050442EAD474BC4243
:1055600004D9BDE8F04D6246FFF741BDAAF14055B0
:10557000A5F17F6555EA0C040BD0022404EAAA7455
:10558000434DDFF810E144EAD87452EA000B04D02E
:105590000CE0BDE8F04DFFF7BBBE002C14BF012CA2
:1055A000BDE8F08D022C30D0032C32D056EA0C0B23
:1055B0000AD0BE4220D1BA4209D126F0804622F05C
:1055C00080423346114617E000291ADB25E0DFF858
:1055D000C8B0FB44002C04BFDBE90001BDE8F08D3E
:1055E000012C02BFDBE9000181F00041BDE8F08D34
:1055F000022C0AD0032C0CD0BA4212D1B8F1000F01
:105600000BDA23482549BDE8F08D28462449BDE83A
:10561000F08D28467146BDE8F08D1D482149BDE852
:10562000F08D921B12153C2AC4BF19481D490EDC8F
:10563000BAF1000FBEBF12F13C0F0020014606DB9D
:10564000624602F0A7FF21F00041FFF761FE002C47
:1056500008BFBDE8F08D012C04BF81F00041BDE81A
:10566000F08D114A114B022C07D003F0A7FB2A46FC
:10567000BDE8F04D0A4B03F0A1BB03F09FFB2A46A7
:10568000BDE8F04D064B03F0A7BA00000000F07F24
:10569000182D4454FB2109C01A5A0000FB21F9BF00
:1056A000FB210940FB21F93F075C143326A6A13CEE
:1056B0002DE9F04391B020216846FAF7C3FE754DFD
:1056C000A879697900EB012003F002F9724C0022FD
:1056D000234602F05FFF02F06FFE074695F83800A0
:1056E00095F8371000EB012003F0F2F80022234672
:1056F00002F050FF02F060FE0446202108A8FAF7ED
:10570000A1FE6648DFF89881874207DD654884423C
:1057100004DA4146204603F067FC04460026204692
:10572000394603F0C9FEF11E03F09BFF814608AC29
:10573000304603F0D7FD0146484603F0E7FD394601
:1057400003F052FC414644F82600884203DD03F092
:10575000B3FE44F82600761CF6B2082EE8D30020EB
:105760000BE0102860D2DFE800F0080813131E1EBB
:10577000292934343F3F4A4A555500EB400129441A
:10578000009A0B7AC9791A4402EB012100914BE08F
:1057900000EB40012944019A0B7AC9791A4402EBC3
:1057A0000121019140E000EB40012944029A0B7A6B
:1057B000C9791A4402EB0121029135E000EB400166
:1057C0002944039A0B7AC9791A4402EB0121039107
:1057D0002AE000EB40012944049A0B7AC9791A4463
:1057E00002EB012104911FE000EB40012944059ADE
:1057F0000B7AC9791A4402EB0121059114E000EB00
:1058000040012944069A0B7AC9791A4402EB012116
:10581000069109E000EB40012944079A0B7AC97907
:105820001A4402EB01210791401CC0B2102898D302
:105830001D4A1E4900201378EC4600BF1D1801EBDD
:10584000C50754F820607E605CF82060401C760834
:10585000C0B221F835600828F0D30833D8B21070F0
:10586000E12813D30B4B002013F13C0301EBC004E0
:1058700003EBC00564686C6031F8304023F83040B9
:10588000401CC0B2E128F1D30020107011B0BDE877
:10589000F083000070100020000059400000AF436A
:1058A0000000B44300005041E000002068090020DF
:1058B0004FF0E020016921F0040101610348092152
:1058C000017042F228314180704700000001002041
:1058D0000B49498848434FF0E021486100228A6122
:1058E000086940F0010008610869C30701D0C003DE
:1058F000FAD5086920F0010008618A61704700004C
:10590000000100200B49097848434FF0E02148612D
:1059100000228A61086940F0010008610869C30734
:1059200001D0C003FAD5086920F0010008618A613E
:10593000704700000001002008B560B120208DF8FC
:10594000000028208DF8010030208DF8020038205A
:105950008DF8030004E0A32204216846FAF748FD0D
:105960006A46042140F69E2001F08AFD01F050FABB
:1059700008BD00003EB5044602208DF80000CA2094
:105980008DF80100E3208DF8020009208DF8030056
:105990006A460421682001F073FDA3208DF8000001
:1059A000610609D5C0218DF80110C8218DF80210BB
:1059B000C2218DF8031005E08DF801008DF802007A
:1059C0008DF8030014F4C07F09D0C4218DF80410B1
:1059D000CC218DF80510C6218DF8061005E08DF854
:1059E00004008DF805008DF806008DF808008DF88C
:1059F00007008DF809006A460A2140F6A72001F049
:105A00003FFDA0074FF0D80503D020208DF80000FF
:105A100001E08DF800506A46012140F6B62001F001
:105A20002FFDA00601D5012000E0002000F08EF837
:105A300014F4C07F1ED0E0050AD5B2208DF8000016
:105A40008B208DF80100B6208DF802009B2009E024
:105A5000B0208DF8000080208DF80100B4208DF872
:105A6000020090208DF803006A46042140F6A2202F
:105A700001F006FDE1074FF40B6022D0F8218DF80C
:105A800000106A46012101F0FBFCFA21072000F01A
:105A900039FB072000F004FB012000F021FB64200B
:105AA00000F0C4FB4FF4FA7000F0D0FBC821254889
:105AB00000F0BEFA282000F0D3FA0A2000F0E0FA45
:105AC00005E08DF800506A46012101F0D9FCA007DD
:105AD00003D5D9208DF8000001E08DF800506A460A
